:100000000C9434000C9451000C9451000C94510049
:100010000C9434010C9451000C9451000C94510038
:100020000C9451000C9451000C9451000C941D013F
:100030000C9451000C9451000C9451000C945100FC
:100040000C9451000C9451000C9451000C945100EC
:100050000C9451000C9451000C9451000C945100DC
:100060000C9451000C94510011241FBECFEFD8E026
:10007000DEBFCDBF12E0A0E0B1E0E8EFF9E102C0E1
:1000800005900D92A839B107D9F723E0A8E9B2E0AD
:1000900001C01D92AF3CB207E1F70E94BF080C946B
:1000A000FA0C0C9400002A98662311F0299A01C0DA
:1000B00029989BB1907F892B8BB92B9A2B98089507
:1000C0002A9A9AB1907F9AB9882311F0299A01C08F
:1000D00029982B9A000089B12B989AB19F609AB900
:1000E0002A988F700895CF93DF93C82FD62F8295CB
:1000F0008F700E9453006D2F8C2F8F700E945300C1
:10010000DF91CF910895CF93DF93C82F0E946000B5
:10011000D82FD295D07F8C2F0E9460008D2BDF913D
:10012000CF91089580E00E9483008823DCF3089536
:10013000219A229A239A8AB18F608AB985EA9EE031
:100140000197F1F700C0000060E083E00E945300D7
:1001500080E094E00197F1F700C0000060E083E0E8
:100160000E94530091E29A95F1F7000060E083E06D
:100170000E9453008CE08A95F1F7000060E082E075
:100180000E94530080E00E94920060E088E20E949A
:10019000730080E00E94920060E088E00E9473009B
:1001A00080E00E94920008950E94980060E081E043
:1001B0000E94730081E00E94920060E086E00E944D
:1001C000730080E00E94920060E08EE00E94730065
:1001D00080E00E9492000895CF93C82F80919802EA
:1001E0008823D1F0CA30D1F080E00E94920060E014
:1001F00081E00E94730080E00E94920060E082E053
:100200000E94730081E00E94920060E080E80E94FA
:1002100073001092980206C0CA3021F481E08093E6
:10022000980207C080E00E94920061E08C2F0E943B
:10023000730080E090E0CF9108951F920F920FB667
:100240000F9211248F939F9380919B0290919C0217
:10025000019690939C0280939B029F918F910F90A7
:100260000FBE0F901F9018951F920F920FB60F920E
:1002700011240F900FBE0F901F90189584E091E00D
:100280009093CC038093CB030E94D40085B78F7EDC
:1002900085BF459A3D9A449A3C98439A3B9A429A24
:1002A0003A982E9A269A2F9A27985F9A579A289AC0
:1002B00020985D98559A18BC80EF87BD84B58162FF
:1002C00084BD85B5896085BD409A3898E8E6F0E040
:1002D000808182608083ECE6F0E0808181608083B1
:1002E000EFE6F0E0808182608083A1E8B0E08C914D
:1002F0008C608C9381E49FE09093890080938800C8
:10030000789480818D7F808308958CED87BD8EE603
:1003100088BD45982FE986E891E0215080409040C3
:10032000E1F700C00000459A18BC83ED90E3019707
:10033000F1F700C00000089586EE87BD83E788BD11
:1003400043982FE986E891E0215080409040E1F702
:1003500000C00000439A18BC83ED90E30197F1F7C9
:1003600000C00000089580EF87BD88E788BD2E9803
:100370002FE986E891E0215080409040E1F700C0ED
:1003800000002E9A18BC83ED90E30197F1F700C0AE
:10039000000008958AEF87BD8DE788BD5F982FE93B
:1003A00086E891E0215080409040E1F700C00000D5
:1003B0005F9A18BC83ED90E30197F1F700C000004D
:1003C00008958CED87BD8EE688BD459887EA91E655
:1003D0000197F1F700C00000459A18BC089586EE19
:1003E00087BD83E788BD439887EA91E60197F1F7D7
:1003F00000C00000439A18BC089580EF87BD88E7CD
:1004000088BD2E9887EA91E60197F1F700C00000B9
:100410002E9A18BC08958AEF87BD8DE788BD5F9836
:1004200087EA91E60197F1F700C000005F9A18BCD7
:100430000895CF93DF9360E080E80E94730080E02E
:100440000E9492002091CB033091CC034BE050E00E
:1004500061E070E086E191E00E949B0980911501C6
:10046000882361F1C0E0D0E0FE01ED5CFC4F8081AB
:10047000811103C00E9485011AC0FE01ED5CFC4F92
:100480008081813019F40E949C0111C0FE01ED5C55
:10049000FC4F8081823019F40E94B30108C0FE0134
:1004A000ED5CFC4F8081833011F40E94CA012196DB
:1004B0008091150190E0C817D907B4F28091150119
:1004C0008F5F8093150160E080E80E94730080E0F8
:1004D0000E9492002091CB033091CC0349E050E080
:1004E00061E070E082E291E00E949B09DF91CF9190
:1004F0000895F999FECF92BD81BD60BDFA9AF99A2F
:100500000895F999FECF92BD81BDF89A80B590E02B
:1005100008950F931F93CF93DF93F89480E090E0BA
:100520000E948102EC0178948091140190E001977F
:100530008C179D070CF456C0F8946091140161501B
:1005400080E090E00E947902789460E080E80E9468
:10055000730080E00E9492008091140190E0019766
:100560009F938F938CE291E09F938F93C9ECD3E09C
:100570008B818F938A818F930E94890960E080EC40
:100580000E94730080E00E9492008091140190E02C
:1005900001979F938F938BE391E09F938F938B8130
:1005A0008F938A818F930E948909EFE6F0E0808122
:1005B0008260808310929C0210929B028DB79EB73E
:1005C0000C960FB6F8949EBF0FBE8DBF80919B0214
:1005D00090919C020397D1F7EFE6F0E080818D7F48
:1005E00080834AC060E080E80E94730080E00E943F
:1005F00092008091140190E001979F938F938CE279
:1006000091E09F938F9309EC13E0F80183818F931E
:1006100082818F930E94890960E080EC0E947300C0
:1006200080E00E949200DF93CF938AE491E09F9351
:100630008F93F80183818F9382818F930E94890920
:10064000EFE6F0E080818260808310929C0210923D
:100650009B028DB79EB70C960FB6F8949EBF0FBE47
:100660008DBF80919B0290919C020297D1F7EFE69B
:10067000F0E080818D7F8083DF91CF911F910F917A
:100680000895CF93DF9360E080E80E94730080E0DC
:100690000E949200C9ECD3E02A813B8140E150E006
:1006A00061E070E089E591E00E949B0960E080ECE8
:1006B0000E94730080E00E9492002A813B8140E109
:1006C00050E061E070E089E591E00E949B09DF91D4
:1006D000CF9108950F931F93CF93DF9360E080E84D
:1006E0000E94730080E00E949200C9ECD3E02A814E
:1006F0003B8148E050E061E070E08AE691E00E94D2
:100700009B0960E080EC0E94730080E00E949200F0
:100710002A813B814FE050E061E070E083E791E0A7
:100720000E949B09EFE6F0E0808182608083109256
:100730009C0210929B0280919B0290919C020397D5
:10074000D1F7CFE6D0E088818D7F88830E94410376
:1007500060E080E80E94730080E00E94920009EC53
:1007600013E0F8012281338140E150E061E070E064
:1007700083E891E00E949B0960E080EC0E94730096
:1007800080E00E949200F801228133814FE050E026
:1007900061E070E084E991E00E949B0988818260B9
:1007A000888310929C0210929B0280919B029091F0
:1007B0009C020197D1F7EFE6F0E080818D7F808386
:1007C000DF91CF911F910F9108950F931F93CF93B6
:1007D000DF930E94410360E080E80E94730080E0A4
:1007E0000E949200C9ECD3E02A813B814DE050E0A9
:1007F00061E070E084EA91E00E949B0960E080EC97
:100800000E94730080E00E9492002A813B814CE0AC
:1008100050E061E070E082EB91E00E949B09EFE61E
:10082000F0E080818260808310929C0210929B0293
:1008300080919B0290919C020397D1F7CFE6D0E084
:1008400088818D7F88830E94410360E080E80E9458
:10085000730080E00E94920009EC13E0F80122810D
:10086000338140E150E061E070E08FEB91E00E9465
:100870009B0960E080EC0E94730080E00E9492007F
:10088000F801228133814EE050E061E070E080EDBC
:1008900091E00E949B0988818260888310929C026B
:1008A00010929B0280919B0290919C020397D1F73A
:1008B000CFE6D0E088818D7F88830E94410360E08D
:1008C00080E80E94730080E00E94920080E090E047
:1008D0000E9481029F938F938AE491E09F938F936C
:1008E000E9ECF3E083818F9382818F930E948909E1
:1008F00088818260888310929C0210929B020F90E4
:100900000F900F900F900F900F9080919B029091FD
:100910009C020397D1F7CFE6D0E088818D7F888352
:100920000E94410360E080E80E94730080E00E9422
:10093000920009EC13E0F801228133814BE050E092
:1009400061E070E08FED91E00E949B0960E080EC37
:100950000E94730080E00E949200F801228133819E
:100960004AE050E061E070E08BEE91E00E949B096C
:1009700088818260888310929C0210929B028091F1
:100980009B0290919C020297D1F7EFE6F0E0808104
:100990008D7F80830E944103DF91CF911F910F9142
:1009A0000895349910C0349BFECF0E94E1018091DC
:1009B00084009091850026B1880F991F820F911DA8
:1009C0000E947E090895329913C0329BFECF0E9487
:1009D000EF01809184009091850026B1AC01440F15
:1009E000551F840F951F820F911D0E947E09089547
:1009F0001F9912C01F9BFECF0E94FD0180918400B1
:100A00009091850023B1880F991F880F991F820F3D
:100A1000911D0E947E0908951899C3CF189BFECF9F
:100A20000E940B02809184009091850023B1AC015B
:100A3000440F551F440F551F840F951F820F911DA2
:100A40000E947E0908950E940B020E94FD010E94EF
:100A5000EF010E94E101089560E080E80E947300C8
:100A600080E00E9492002091CB033091CC0340E1C2
:100A700050E061E070E086EF91E00E949B090E94E7
:100A8000E10183ED90E30197F1F700C000000E94BF
:100A9000EF0183ED90E30197F1F700C000000E94A1
:100AA000FD0183ED90E30197F1F700C000000E9483
:100AB0000B0283ED90E30197F1F700C000000E9464
:100AC00041030895E0919902F0919A02E356FD4F97
:100AD0009081E0919902F0919A02ED5CFC4F808147
:100AE000981331C0E0919902F0919A02E356FD4FBC
:100AF0008081811103C00E94E1010895E091990273
:100B0000F0919A02E356FD4F8081813019F40E94E2
:100B1000EF010895E0919902F0919A02E356FD4F9A
:100B20008081823019F40E94FD010895E0919902BC
:100B3000F0919A02E356FD4F8081833009F0BCC0EA
:100B40000E940B020895E0919902F0919A02ED5CE7
:100B5000FC4F8081811122C02FE986E891E021506D
:100B600080409040E1F700C000000E94E10187EA68
:100B700091E60197F1F700C000000E94E10187EAC9
:100B800091E60197F1F700C000000E94E10187EAB9
:100B900091E60197F1F700C0000080C0E091990252
:100BA000F0919A02ED5CFC4F8081813011F59FE954
:100BB00026E881E0915020408040E1F700C000002D
:100BC0000E94EF0187EA91E60197F1F700C000006B
:100BD0000E94EF0187EA91E60197F1F700C000005B
:100BE0000E94EF0187EA91E60197F1F700C000004B
:100BF00055C0E0919902F0919A02ED5CFC4F808122
:100C0000823011F59FE926E881E091502040804034
:100C1000E1F700C000000E94FD0187EA91E601971C
:100C2000F1F700C000000E94FD0187EA91E60197FC
:100C3000F1F700C000000E94FD0187EA91E60197EC
:100C4000F1F700C000002AC0E0919902F0919A02E9
:100C5000ED5CFC4F8081833009F59FE926E881E057
:100C6000915020408040E1F700C000000E940B023C
:100C700087EA91E60197F1F700C000000E940B029D
:100C800087EA91E60197F1F700C000000E940B028D
:100C900087EA91E60197F1F700C0000087EA91E644
:100CA0000197F1F700C000000E942C050E94890204
:100CB00010921301109214010895CF93DF9360E016
:100CC00080E80E94730080E00E949200C9ECD3E0AB
:100CD0002A813B8140E150E061E070E087E092E0F2
:100CE0000E949B0960E080EC0E94730080E00E94FB
:100CF00092002A813B8140E150E061E070E088E1B0
:100D000092E00E949B09EFE6F0E0808182608083A0
:100D100010929C0210929B0280919B0290919C02E7
:100D20000297D1F7EFE6F0E080818D7F808360E06D
:100D300080E80E94730080E00E949200C9ECD3E03A
:100D40002A813B8140E150E061E070E089E292E07D
:100D50000E949B0960E080EC0E94730080E00E948A
:100D600092002A813B8140E150E061E070E08AE33B
:100D700092E00E949B090E94CA010E9485010E9484
:100D8000EF010E94FD010E94CA01DF91CF910895F9
:100D900098EC97BD84E688BD459843982E985F9857
:100DA0002FE53AEE40E0215030404040E1F700C0EE
:100DB000000018BC459A439A2E9A5F9AEFE4F3EC30
:100DC0003197F1F700C0000097BD88BD4598439862
:100DD0002E985F98FFE52AEE30E0F1502040304039
:100DE000E1F700C0000018BC459A439A2E9A5F9A1A
:100DF000EFE4F3EC3197F1F700C0000097BD88BD38
:100E0000459843982E985F98FFE52AEE30E0F15020
:100E100020403040E1F700C0000018BC459A439ADA
:100E20002E9A5F9A8FE493EC0197F1F700C00000CF
:100E30000895CF93DF930E94C8060E94890260E064
:100E400080E80E94730080E00E949200C9ECD3E029
:100E50002A813B8140E150E061E070E08BE492E068
:100E60000E949B0960E080EC0E94730080E00E9479
:100E700092002A813B8140E150E061E070E08CE526
:100E800092E00E949B09EFE6F0E08081826080831F
:100E900010929C0210929B0280919B0290919C0266
:100EA0000297D1F7EFE6F0E080818D7F8083DF91BC
:100EB000CF910895CF93DF9360E080E80E947300A4
:100EC00080E00E949200C9ECD3E02A813B8140E19E
:100ED00050E061E070E08DE692E00E949B0960E0E6
:100EE00080EC0E94730080E00E9492002A813B8186
:100EF0004DE050E061E070E08EE792E00E949B09D7
:100F0000DF91CF91089560E080E80E94730080E057
:100F10000E9492002091CB033091CC034BE050E033
:100F200061E070E08CE892E00E949B09E0919902F8
:100F3000F0919A02ED5CFC4F8081811107C00E9404
:100F400085010E9485010E9485012FC0E0919902D0
:100F5000F0919A02ED5CFC4F8081813039F40E945F
:100F60009C010E949C010E949C011FC0E09199027B
:100F7000F0919A02ED5CFC4F8081823039F40E943E
:100F8000B3010E94B3010E94B3010FC0E091990226
:100F9000F0919A02ED5CFC4F8081833031F40E9425
:100FA000CA010E94CA010E94CA010E94E10183EDA8
:100FB00090E30197F1F700C000000E94EF0183ED7C
:100FC00090E30197F1F700C000000E94FD0183ED5E
:100FD00090E30197F1F700C000000E940B0283ED3F
:100FE00090E30197F1F700C000000895DF92EF92BF
:100FF000FF920F931F93CF93DF9310929A02109258
:10100000990280911401882309F499C0C0E0D0E0CE
:101010000FE610E0FF24F3946894EE24E1F80F2E1D
:10102000F3E0DF2EF02DF801808182608083109242
:101030009C0210929B0280919B0290919C020597CA
:1010400009F474C0349B0BC01AC080919B0290912C
:101050009C02059721F40E94830710921301349B90
:10106000F4CFF80180818D7F8083E0919902F09127
:101070009A02E356FD4F10820E94620566C0329BC1
:101080000BC01AC080919B0290919C02059721F49D
:101090000E94830710921301329BF4CFF8018081E4
:1010A0008D7F8083E0919902F0919A02E356FD4F83
:1010B000F0820E94620549C01F9B0BC01AC080913C
:1010C0009B0290919C02059721F40E948307109245
:1010D00013011F9BF4CFF80180818D7F8083E09105
:1010E0009902F0919A02E356FD4FE0820E94620558
:1010F0002CC0189B0BC09FCF80919B0290919C02AB
:10110000059721F40E94830710921301189BF4CFD6
:10111000F80180818D7F8083E0919902F0919A029D
:10112000E356FD4FD0820E9462050FC00E948307E4
:101130000E948902109214011092130106C080913E
:1011400014018F5F8093140112C0809199029091D5
:101150009A02019690939A02809399022196809127
:10116000140190E0C817D9070CF45DCFE8CFDF91E8
:10117000CF911F910F91FF90EF90DF9008950E9403
:101180003E0111E00E9441030E945A0783B7817F0C
:10119000846083BFF89483B7816083BF7894889517
:1011A00083B78E7F83BF0E9441030E9423050E9464
:1011B0006A030E94D1040E94E503C0E0D0E00E94CF
:1011C000790983709078992324F401978C6F9F6F2D
:1011D0000196FE01ED5CFC4F80832196C639D10556
:1011E00071F710931201109315011093140180915F
:1011F0001201811123C0C6CF2FE986E891E021506A
:1012000080409040E1F700C00000809114018739D0
:1012100059F08091150190E00E941902809114010B
:1012200090E00E94F6070AC00E9441030E9419073D
:101230000E94410310921301109212018091130138
:101240008111DACF10931301109212010E945D06F2
:10125000809112018111F2CF95CF8F929F92AF9220
:10126000BF92CF92DF92EF92FF92CF93DF93EC0188
:10127000688179818A819B8161157105810591055C
:1012800021F464E279ED8BE597E02DE133EF41E065
:1012900050E00E94600C49015A019B01AC01A7EA91
:1012A000B1E40E947F0C6B017C01ACEEB4EFA501B0
:1012B00094010E948D0CDC01CB018C0D9D1DAE1D97
:1012C000BF1DB7FF03C00197A109B0488883998368
:1012D000AA83BB839F77DF91CF91FF90EF90DF9040
:1012E000CF90BF90AF909F908F9008950E942D094E
:1012F000089580E091E00E942D090895A0E0B0E0FB
:101300008093000190930101A0930201B093030127
:101310000895A0E0B0E0EFE8F9E00C94A20CAE0173
:10132000475F5F4F6F8178858D819E810E94CF09D5
:10133000E2E00C94BE0CA0E0B0E0E1EAF9E00C942D
:10134000980C5B014A017901D90113962C9121FF78
:101350001DC0C0E0D0E0C815D905D9F08C016C01E2
:10136000CA0CDB1CC8010C151D0571F00F5F1F4F67
:10137000D7011896ED91FC911997B701DC018C917A
:101380000995892B79F305C02196E5CF80E090E09F
:1013900001C0CE01CDB7DEB7ECE00C94B40CABE0ED
:1013A000B0E0E5EDF9E00C94920C6C017B018A0150
:1013B000FC0117821682838181FFCCC1CE01019688
:1013C0003C01F6019381F70193FD859193FF819193
:1013D0007F01882309F4BAC1853239F493FD8591E0
:1013E00093FF81917F01853229F4B60190E00E943C
:1013F000C60BE7CF912C212C312CFFE1F315D8F04F
:101400008B3279F038F4803279F08332A1F4232DD5
:1014100020611DC08D3261F0803369F4232D21607D
:1014200016C0832D8260382EE32DE4603E2E2AC044
:10143000F32DF8601DC037FC2DC020ED280F2A3099
:1014400040F08E32B9F436FC81C1232D2064322E57
:1014500019C036FE06C08AE0989E200D1124922EF7
:1014600011C0EAE02E9E200D1124222EF32DF062F1
:101470003F2E08C08C3621F4832D8068382E02C0A0
:10148000883641F4F70193FD859193FF81917F01A7
:101490008111B3CF982F9F7D9554933028F40C5F22
:1014A0001F4F9FE399830DC0833631F0833771F06E
:1014B000833509F059C021C0F801808189830E5F0E
:1014C0001F4F88248394912C530113C02801F2E00C
:1014D0004F0E511CF801A080B18036FE03C0692D6B
:1014E00070E002C06FEF7FEFC5010E94BB0B4C01A3
:1014F0008201F32DFF773F2E16C0280122E0420E15
:10150000511CF801A080B18036FE03C0692D70E047
:1015100002C06FEF7FEFC5010E94B00B4C01F32DAD
:10152000F0683F2E820133FC1BC0822D90E08816AC
:101530009906B0F4B60180E290E00E94C60B2A94AE
:10154000F4CFF50137FC859137FE81915F01B6013B
:1015500090E00E94C60B21102A9421E0821A910883
:101560008114910471F7E8C0843611F0893641F591
:10157000F80137FE07C060817181828193810C5F21
:101580001F4F08C060817181072E000C880B990BDA
:101590000E5F1F4FF32DFF763F2E97FF09C09095EA
:1015A0008095709561957F4F8F4F9F4FF0683F2ECC
:1015B0002AE030E0A3010E94020C882E861845C064
:1015C000853731F4232D2F7EB22E2AE030E025C05E
:1015D000932D997FB92E8F36C1F018F4883579F0A4
:1015E000B5C0803719F0883721F0B0C0E92FE0612D
:1015F000BE2EB4FE0DC0FB2DF460BF2E09C034FE1C
:101600000AC0292F2660B22E06C028E030E005C0AF
:1016100020E130E002C020E132E0F801B7FE07C06F
:1016200060817181828193810C5F1F4F06C0608150
:10163000718180E090E00E5F1F4FA3010E94020CB9
:10164000882E8618FB2DFF773F2E36FE0DC0232DEA
:101650002E7FA22E891458F434FE0BC032FC09C030
:10166000832D8E7EA82E05C0B82CA32C03C0B82CC9
:1016700001C0B92CA4FE0FC0FE01E80DF11D808150
:10168000803321F49A2D997EA92E09C0A2FE06C0AE
:10169000B394B39404C08A2D867809F0B394A3FC64
:1016A00011C0A0FE06C0B21488F4280C922C9B181E
:1016B0000EC0B21460F4B60180E290E00E94C60B46
:1016C000B394F7CFB21418F42B1802C0982C212C25
:1016D000A4FE10C0B60180E390E00E94C60BA2FEFB
:1016E00017C0A1FC03C088E790E002C088E590E045
:1016F000B6010CC08A2D867859F0A1FE02C08BE29B
:1017000001C080E2A7FC8DE2B60190E00E94C60B0A
:10171000891438F4B60180E390E00E94C60B9A94D5
:10172000F7CF8A94F301E80DF11D8081B60190E0B6
:101730000E94C60B8110F5CF222009F442CEB601DB
:1017400080E290E00E94C60B2A94F6CFF6018681D3
:10175000978102C08FEF9FEF2B96E2E10C94AE0CC5
:10176000FC010590615070400110D8F7809590956C
:101770008E0F9F1F0895FC01615070400190011071
:10178000D8F7809590958E0F9F1F08950F931F9304
:10179000CF93DF93FB01238121FD03C08FEF9FEFE8
:1017A0002CC022FF16C04681578124813581421703
:1017B000530744F4A081B1819D012F5F3F4F3183D6
:1017C00020838C93268137812F5F3F4F3783268379
:1017D00014C08B01EC01FB010084F185E02D09951B
:1017E000892BE1F6D80116968D919C911797019659
:1017F00017969C938E931697CE01DF91CF911F91F0
:101800000F910895FA01AA27283051F1203181F172
:10181000E8946F936E7F6E5F7F4F8F4F9F4FAF4FF8
:10182000B1E03ED0B4E03CD0670F781F891F9A1F0B
:10183000A11D680F791F8A1F911DA11D6A0F711DBF
:10184000811D911DA11D20D009F468943F912AE0CB
:10185000269F11243019305D3193DEF6CF010895B3
:10186000462F4770405D4193B3E00FD0C9F7F6CFE4
:10187000462F4F70405D4A3318F0495D31FD4052AC
:10188000419302D0A9F7EACFB4E0A6959795879542
:1018900077956795BA95C9F7009761057105089521
:1018A0009B01AC010A2E06945795479537952795CD
:1018B000BA95C9F7620F731F841F951FA01D089565
:1018C000052E97FB1EF400940E94770C57FD07D05D
:1018D0000E94C90C07FC03D04EF40C94770C509571
:1018E0004095309521953F4F4F4F5F4F089590950C
:1018F0008095709561957F4F8F4F9F4F08950E94FF
:10190000EB0CA59F900DB49F900DA49F800D911D91
:1019100011240895B7FF0C947F0C0E947F0C821B4A
:10192000930B08952F923F924F925F926F927F9206
:101930008F929F92AF92BF92CF92DF92EF92FF92DF
:101940000F931F93CF93DF93CDB7DEB7CA1BDB0B8B
:101950000FB6F894DEBF0FBECDBF09942A88398830
:1019600048885F846E847D848C849B84AA84B98437
:10197000C884DF80EE80FD800C811B81AA81B98143
:10198000CE0FD11D0FB6F894DEBF0FBECDBFED0157
:101990000895A1E21A2EAA1BBB1BFD010DC0AA1FB0
:1019A000BB1FEE1FFF1FA217B307E407F50720F0C8
:1019B000A21BB30BE40BF50B661F771F881F991F43
:1019C0001A9469F760957095809590959B01AC018C
:1019D000BD01CF010895A29FB001B39FC001A39F95
:1019E000700D811D1124911DB29F700D811D112458
:0819F000911D0895F894FFCF4A
:1019F800010000000000000200000000EC000000F0
:101A08000000010101014D79207475726E202020BB
:101A18002000596F7572207475726E00596F757257
:101A28002053636F72653A202575004869676820FE
:101A380053636F72653A20257500486967682053BB
:101A4800636F72653A202564002020202020202022
:101A58002020202020202020200057656C636F6DF7
:101A6800652100496620796F752772652072656166
:101A78006479007072657373206F6E65206F6620DD
:101A8800746865003420627574746F6E73206265C3
:101A98006C6F7700476F616C3A20526570656174AE
:101AA80020007468652073657175656E63650059FB
:101AB8006F75206861766520352073656373200033
:101AC800666F722065616368206D6F7665200048D7
:101AD80065726520776520676F2100476F6F642006
:101AE8006C75636B210057726F6E67206D6F76653A
:101AF800212020202020005468616E6B7320666FBF
:101B08007220202020202000706C6179696E672186
:101B180020202020202020200049276D20676F6981
:101B28006E6720746F2020202000736C6565702E0E
:101B38002047276E69676874212000596F752077E0
:101B48006F6E21212020202020202000436F6E6707
:101B5800726174756C6174696F6E7321005072657F
:101B6800737320627574746F6E202D2D3E00746F30
:101B78002077616B65206D652075700054696D650F
:081B8800206973207570210033
:00000001FF
